{
  "_format": "hh-sol-artifact-1",
  "contractName": "ContentRegistry",
  "sourceName": "contracts/ContentRegistry.sol",
  "abi": [
    {
      "inputs": [
        {
          "internalType": "address",
          "name": "_roastToken",
          "type": "address"
        }
      ],
      "stateMutability": "nonpayable",
      "type": "constructor"
    },
    {
      "inputs": [],
      "name": "EnforcedPause",
      "type": "error"
    },
    {
      "inputs": [],
      "name": "ExpectedPause",
      "type": "error"
    },
    {
      "inputs": [
        {
          "internalType": "address",
          "name": "owner",
          "type": "address"
        }
      ],
      "name": "OwnableInvalidOwner",
      "type": "error"
    },
    {
      "inputs": [
        {
          "internalType": "address",
          "name": "account",
          "type": "address"
        }
      ],
      "name": "OwnableUnauthorizedAccount",
      "type": "error"
    },
    {
      "inputs": [],
      "name": "ReentrancyGuardReentrantCall",
      "type": "error"
    },
    {
      "anonymous": false,
      "inputs": [
        {
          "indexed": true,
          "internalType": "uint256",
          "name": "contentId",
          "type": "uint256"
        },
        {
          "indexed": true,
          "internalType": "address",
          "name": "creator",
          "type": "address"
        },
        {
          "indexed": false,
          "internalType": "uint256",
          "name": "price",
          "type": "uint256"
        },
        {
          "indexed": false,
          "internalType": "string",
          "name": "contentType",
          "type": "string"
        }
      ],
      "name": "ContentApproved",
      "type": "event"
    },
    {
      "anonymous": false,
      "inputs": [
        {
          "indexed": true,
          "internalType": "uint256",
          "name": "contentId",
          "type": "uint256"
        },
        {
          "indexed": true,
          "internalType": "address",
          "name": "owner",
          "type": "address"
        },
        {
          "indexed": false,
          "internalType": "string",
          "name": "personalizedHash",
          "type": "string"
        }
      ],
      "name": "ContentPersonalized",
      "type": "event"
    },
    {
      "anonymous": false,
      "inputs": [
        {
          "indexed": true,
          "internalType": "uint256",
          "name": "contentId",
          "type": "uint256"
        },
        {
          "indexed": true,
          "internalType": "address",
          "name": "buyer",
          "type": "address"
        },
        {
          "indexed": true,
          "internalType": "address",
          "name": "creator",
          "type": "address"
        },
        {
          "indexed": false,
          "internalType": "uint256",
          "name": "price",
          "type": "uint256"
        }
      ],
      "name": "ContentPurchased",
      "type": "event"
    },
    {
      "anonymous": false,
      "inputs": [
        {
          "indexed": true,
          "internalType": "uint256",
          "name": "contentId",
          "type": "uint256"
        },
        {
          "indexed": true,
          "internalType": "address",
          "name": "creator",
          "type": "address"
        },
        {
          "indexed": false,
          "internalType": "string",
          "name": "contentHash",
          "type": "string"
        },
        {
          "indexed": false,
          "internalType": "string",
          "name": "contentType",
          "type": "string"
        }
      ],
      "name": "ContentRegistered",
      "type": "event"
    },
    {
      "anonymous": false,
      "inputs": [
        {
          "indexed": true,
          "internalType": "address",
          "name": "previousOwner",
          "type": "address"
        },
        {
          "indexed": true,
          "internalType": "address",
          "name": "newOwner",
          "type": "address"
        }
      ],
      "name": "OwnershipTransferred",
      "type": "event"
    },
    {
      "anonymous": false,
      "inputs": [
        {
          "indexed": false,
          "internalType": "address",
          "name": "account",
          "type": "address"
        }
      ],
      "name": "Paused",
      "type": "event"
    },
    {
      "anonymous": false,
      "inputs": [
        {
          "indexed": true,
          "internalType": "uint256",
          "name": "contentId",
          "type": "uint256"
        },
        {
          "indexed": false,
          "internalType": "uint256",
          "name": "oldPrice",
          "type": "uint256"
        },
        {
          "indexed": false,
          "internalType": "uint256",
          "name": "newPrice",
          "type": "uint256"
        }
      ],
      "name": "PriceUpdated",
      "type": "event"
    },
    {
      "anonymous": false,
      "inputs": [
        {
          "indexed": true,
          "internalType": "address",
          "name": "oldAddress",
          "type": "address"
        },
        {
          "indexed": true,
          "internalType": "address",
          "name": "newAddress",
          "type": "address"
        }
      ],
      "name": "RewardDistributionUpdated",
      "type": "event"
    },
    {
      "anonymous": false,
      "inputs": [
        {
          "indexed": true,
          "internalType": "address",
          "name": "oldAddress",
          "type": "address"
        },
        {
          "indexed": true,
          "internalType": "address",
          "name": "newAddress",
          "type": "address"
        }
      ],
      "name": "RoastTokenUpdated",
      "type": "event"
    },
    {
      "anonymous": false,
      "inputs": [
        {
          "indexed": false,
          "internalType": "address",
          "name": "account",
          "type": "address"
        }
      ],
      "name": "Unpaused",
      "type": "event"
    },
    {
      "inputs": [
        {
          "internalType": "uint256",
          "name": "_contentId",
          "type": "uint256"
        },
        {
          "internalType": "uint256",
          "name": "_price",
          "type": "uint256"
        }
      ],
      "name": "approveContent",
      "outputs": [],
      "stateMutability": "nonpayable",
      "type": "function"
    },
    {
      "inputs": [
        {
          "internalType": "uint256",
          "name": "",
          "type": "uint256"
        }
      ],
      "name": "contentExistsMap",
      "outputs": [
        {
          "internalType": "bool",
          "name": "",
          "type": "bool"
        }
      ],
      "stateMutability": "view",
      "type": "function"
    },
    {
      "inputs": [
        {
          "internalType": "uint256",
          "name": "",
          "type": "uint256"
        }
      ],
      "name": "contents",
      "outputs": [
        {
          "internalType": "uint256",
          "name": "contentId",
          "type": "uint256"
        },
        {
          "internalType": "address",
          "name": "creator",
          "type": "address"
        },
        {
          "internalType": "address",
          "name": "currentOwner",
          "type": "address"
        },
        {
          "internalType": "string",
          "name": "contentHash",
          "type": "string"
        },
        {
          "internalType": "string",
          "name": "personalizedHash",
          "type": "string"
        },
        {
          "internalType": "uint256",
          "name": "price",
          "type": "uint256"
        },
        {
          "internalType": "bool",
          "name": "isAvailable",
          "type": "bool"
        },
        {
          "internalType": "bool",
          "name": "isApproved",
          "type": "bool"
        },
        {
          "internalType": "bool",
          "name": "isPersonalized",
          "type": "bool"
        },
        {
          "internalType": "uint256",
          "name": "createdAt",
          "type": "uint256"
        },
        {
          "internalType": "uint256",
          "name": "approvedAt",
          "type": "uint256"
        },
        {
          "internalType": "uint256",
          "name": "soldAt",
          "type": "uint256"
        },
        {
          "internalType": "uint256",
          "name": "personalizedAt",
          "type": "uint256"
        },
        {
          "internalType": "string",
          "name": "contentType",
          "type": "string"
        }
      ],
      "stateMutability": "view",
      "type": "function"
    },
    {
      "inputs": [],
      "name": "emergencyWithdrawETH",
      "outputs": [],
      "stateMutability": "nonpayable",
      "type": "function"
    },
    {
      "inputs": [
        {
          "internalType": "address",
          "name": "_token",
          "type": "address"
        },
        {
          "internalType": "uint256",
          "name": "_amount",
          "type": "uint256"
        }
      ],
      "name": "emergencyWithdrawToken",
      "outputs": [],
      "stateMutability": "nonpayable",
      "type": "function"
    },
    {
      "inputs": [
        {
          "internalType": "uint256",
          "name": "_contentId",
          "type": "uint256"
        }
      ],
      "name": "getContent",
      "outputs": [
        {
          "components": [
            {
              "internalType": "uint256",
              "name": "contentId",
              "type": "uint256"
            },
            {
              "internalType": "address",
              "name": "creator",
              "type": "address"
            },
            {
              "internalType": "address",
              "name": "currentOwner",
              "type": "address"
            },
            {
              "internalType": "string",
              "name": "contentHash",
              "type": "string"
            },
            {
              "internalType": "string",
              "name": "personalizedHash",
              "type": "string"
            },
            {
              "internalType": "uint256",
              "name": "price",
              "type": "uint256"
            },
            {
              "internalType": "bool",
              "name": "isAvailable",
              "type": "bool"
            },
            {
              "internalType": "bool",
              "name": "isApproved",
              "type": "bool"
            },
            {
              "internalType": "bool",
              "name": "isPersonalized",
              "type": "bool"
            },
            {
              "internalType": "uint256",
              "name": "createdAt",
              "type": "uint256"
            },
            {
              "internalType": "uint256",
              "name": "approvedAt",
              "type": "uint256"
            },
            {
              "internalType": "uint256",
              "name": "soldAt",
              "type": "uint256"
            },
            {
              "internalType": "uint256",
              "name": "personalizedAt",
              "type": "uint256"
            },
            {
              "internalType": "string",
              "name": "contentType",
              "type": "string"
            }
          ],
          "internalType": "struct ContentRegistry.Content",
          "name": "",
          "type": "tuple"
        }
      ],
      "stateMutability": "view",
      "type": "function"
    },
    {
      "inputs": [
        {
          "internalType": "uint256",
          "name": "_contentId",
          "type": "uint256"
        }
      ],
      "name": "getContentOwner",
      "outputs": [
        {
          "internalType": "address",
          "name": "",
          "type": "address"
        }
      ],
      "stateMutability": "view",
      "type": "function"
    },
    {
      "inputs": [
        {
          "internalType": "address",
          "name": "_user",
          "type": "address"
        }
      ],
      "name": "getUserContentCount",
      "outputs": [
        {
          "internalType": "uint256",
          "name": "",
          "type": "uint256"
        }
      ],
      "stateMutability": "view",
      "type": "function"
    },
    {
      "inputs": [
        {
          "internalType": "address",
          "name": "_user",
          "type": "address"
        }
      ],
      "name": "getUserContents",
      "outputs": [
        {
          "internalType": "uint256[]",
          "name": "",
          "type": "uint256[]"
        }
      ],
      "stateMutability": "view",
      "type": "function"
    },
    {
      "inputs": [
        {
          "internalType": "uint256",
          "name": "_contentId",
          "type": "uint256"
        }
      ],
      "name": "isContentAvailable",
      "outputs": [
        {
          "internalType": "bool",
          "name": "",
          "type": "bool"
        }
      ],
      "stateMutability": "view",
      "type": "function"
    },
    {
      "inputs": [
        {
          "internalType": "uint256",
          "name": "_contentId",
          "type": "uint256"
        },
        {
          "internalType": "string",
          "name": "_personalizedHash",
          "type": "string"
        }
      ],
      "name": "markContentPersonalized",
      "outputs": [],
      "stateMutability": "nonpayable",
      "type": "function"
    },
    {
      "inputs": [],
      "name": "owner",
      "outputs": [
        {
          "internalType": "address",
          "name": "",
          "type": "address"
        }
      ],
      "stateMutability": "view",
      "type": "function"
    },
    {
      "inputs": [],
      "name": "pause",
      "outputs": [],
      "stateMutability": "nonpayable",
      "type": "function"
    },
    {
      "inputs": [],
      "name": "paused",
      "outputs": [
        {
          "internalType": "bool",
          "name": "",
          "type": "bool"
        }
      ],
      "stateMutability": "view",
      "type": "function"
    },
    {
      "inputs": [
        {
          "internalType": "uint256",
          "name": "_contentId",
          "type": "uint256"
        }
      ],
      "name": "purchaseContent",
      "outputs": [],
      "stateMutability": "nonpayable",
      "type": "function"
    },
    {
      "inputs": [
        {
          "internalType": "uint256",
          "name": "_contentId",
          "type": "uint256"
        },
        {
          "internalType": "uint256",
          "name": "_deadline",
          "type": "uint256"
        },
        {
          "internalType": "uint8",
          "name": "_v",
          "type": "uint8"
        },
        {
          "internalType": "bytes32",
          "name": "_r",
          "type": "bytes32"
        },
        {
          "internalType": "bytes32",
          "name": "_s",
          "type": "bytes32"
        }
      ],
      "name": "purchaseContentWithPermit",
      "outputs": [],
      "stateMutability": "nonpayable",
      "type": "function"
    },
    {
      "inputs": [
        {
          "internalType": "uint256",
          "name": "_contentId",
          "type": "uint256"
        },
        {
          "internalType": "address",
          "name": "_creator",
          "type": "address"
        },
        {
          "internalType": "string",
          "name": "_contentHash",
          "type": "string"
        },
        {
          "internalType": "string",
          "name": "_contentType",
          "type": "string"
        }
      ],
      "name": "registerContent",
      "outputs": [],
      "stateMutability": "nonpayable",
      "type": "function"
    },
    {
      "inputs": [],
      "name": "renounceOwnership",
      "outputs": [],
      "stateMutability": "nonpayable",
      "type": "function"
    },
    {
      "inputs": [],
      "name": "rewardDistribution",
      "outputs": [
        {
          "internalType": "address",
          "name": "",
          "type": "address"
        }
      ],
      "stateMutability": "view",
      "type": "function"
    },
    {
      "inputs": [],
      "name": "roastToken",
      "outputs": [
        {
          "internalType": "address",
          "name": "",
          "type": "address"
        }
      ],
      "stateMutability": "view",
      "type": "function"
    },
    {
      "inputs": [
        {
          "internalType": "address",
          "name": "_rewardDistribution",
          "type": "address"
        }
      ],
      "name": "setRewardDistribution",
      "outputs": [],
      "stateMutability": "nonpayable",
      "type": "function"
    },
    {
      "inputs": [
        {
          "internalType": "address",
          "name": "_roastToken",
          "type": "address"
        }
      ],
      "name": "setRoastToken",
      "outputs": [],
      "stateMutability": "nonpayable",
      "type": "function"
    },
    {
      "inputs": [],
      "name": "totalContent",
      "outputs": [
        {
          "internalType": "uint256",
          "name": "",
          "type": "uint256"
        }
      ],
      "stateMutability": "view",
      "type": "function"
    },
    {
      "inputs": [
        {
          "internalType": "address",
          "name": "newOwner",
          "type": "address"
        }
      ],
      "name": "transferOwnership",
      "outputs": [],
      "stateMutability": "nonpayable",
      "type": "function"
    },
    {
      "inputs": [],
      "name": "unpause",
      "outputs": [],
      "stateMutability": "nonpayable",
      "type": "function"
    },
    {
      "inputs": [
        {
          "internalType": "uint256",
          "name": "_contentId",
          "type": "uint256"
        },
        {
          "internalType": "uint256",
          "name": "_newPrice",
          "type": "uint256"
        }
      ],
      "name": "updatePrice",
      "outputs": [],
      "stateMutability": "nonpayable",
      "type": "function"
    },
    {
      "inputs": [
        {
          "internalType": "address",
          "name": "",
          "type": "address"
        },
        {
          "internalType": "uint256",
          "name": "",
          "type": "uint256"
        }
      ],
      "name": "userContents",
      "outputs": [
        {
          "internalType": "uint256",
          "name": "",
          "type": "uint256"
        }
      ],
      "stateMutability": "view",
      "type": "function"
    },
    {
      "stateMutability": "payable",
      "type": "receive"
    }
  ],
  "bytecode": "0x60803460d557601f61203038819003918201601f19168301916001600160401b0383118484101760da5780849260209460405283398101031260d557516001600160a01b0381169081900360d557331560bf5760008054336001600160a01b0319821681178355604051939290916001600160a01b0316907f8be0079c531659141344cd1fd0a4f28419497f9722a3daafe3b4186f6b6457e09080a360018055600880546001600160a01b031916919091179055611f3f90816100f18239f35b631e4fbdf760e01b600052600060045260246000fd5b600080fd5b634e487b7160e01b600052604160045260246000fdfe608080604052600436101561001d575b50361561001b57600080fd5b005b600090813560e01c90816263e39414611b01575080630b7ad54c1461188d5780630d68b76114611822578063101114cf146117f957806323c30991146116bd57806328f2ac28146114635780632c59d163146114455780632f6744af14610d3157806336cb921514610cf85780633f4ba83a14610c905780634d85ab3a146109e95780635c975abb146109c65780635efd2fcb14610979578063715018a61461091f57806376a64cd1146107d657806382367b2d146106ba578063845360171461065c5780638456cb59146106015780638da5cb5b146105da5780638dc8fb93146105255780639d356b2a146104ce5780639fcf288414610454578063a4c3b09114610399578063ad1fca5b14610352578063b4ae483a14610329578063b5ecf912146101d65763f2fde38b0361000f57346101d35760203660031901126101d357610167611b6e565b61016f611ea1565b6001600160a01b031680156101bf5781546001600160a01b03198116821783556001600160a01b03167f8be0079c531659141344cd1fd0a4f28419497f9722a3daafe3b4186f6b6457e08380a380f35b631e4fbdf760e01b82526004829052602482fd5b80fd5b50346101d35760203660031901126101d35760043581526003602052604090208054600160a01b6001900360018301541691600160a01b60019003600282015416604051908180600385019061022b91611cb3565b036102369083611bbc565b60405191826102488160048701611cb3565b036102539084611bbc565b6005840154926006850154600786015490600887015492600988015494600a8901549660405180600b819c019061028991611cb3565b03610294908b611bbc565b6040519b8c9b8c5260208c015260408b015260608a016101c090526101c08a016102bd91611b2d565b89810360808b01526102ce91611b2d565b9560a089015260ff8116151560c08901528060081c60ff16151560e089015260101c60ff1615156101008801526101208701526101408601526101608501526101808401528281036101a084015261032591611b2d565b0390f35b50346101d357806003193601126101d3576008546040516001600160a01b039091168152602090f35b50346101d35760203660031901126101d35760ff6006604060209360043580825260058652610385858484205416611d36565b815260038552200154166040519015158152f35b50346101d35760403660031901126101d35780602061040b6103b9611b6e565b6103c1611ea1565b6001600160a01b03166103d5811515611e5d565b835460405163a9059cbb60e01b81526001600160a01b039091166004820152602480359082015293849283919082906044820190565b03925af180156104495761041d575080f35b61043e9060203d602011610442575b6104368183611bbc565b810190611dbf565b5080f35b503d61042c565b6040513d84823e3d90fd5b50346101d35760203660031901126101d35761046e611b6e565b610476611ea1565b6001600160a01b031661048a811515611e5d565b600880546001600160a01b0319811683179091556001600160a01b03167f313ef9a66d16c33899e8c7ea02b08c9faca9f7ff838b559760c6fa9fc85fe7298380a380f35b50346101d35760403660031901126101d3576104e8611b6e565b6001600160a01b03168152600460205260408120805460243592908310156101d35760206105168484611c4b565b90549060031b1c604051908152f35b50346101d35760203660031901126101d3576001600160a01b03610547611b6e565b168152600460205260408120604051908160208254918281520190819285526020852090855b8181106105c45750505082610583910383611bbc565b604051928392602084019060208552518091526040840192915b8181106105ab575050500390f35b825184528594506020938401939092019160010161059d565b825484526020909301926001928301920161056d565b50346101d357806003193601126101d357546040516001600160a01b039091168152602090f35b50346101d357806003193601126101d35761061a611ea1565b610622611eec565b600160ff1960025416176002557f62e78cea01bee320cd4e420270b5ea74000d11b0c9f74754ebdbfc544b05a2586020604051338152a180f35b50346101d357806003193601126101d357610675611ea1565b80478015908115610684575050f35b82809291819260018060a01b038354169083906106b1575bf1156106a55780f35b604051903d90823e3d90fd5b506108fc61069c565b50346101d3576106c936611c35565b6106d1611ea1565b81835260056020526106e960ff604085205416611d36565b818352600360205260408320600681015460ff8160081c16156107915760ff1615610755578160056040926107407f15819dd2fd9f6418b142e798d08a18d0bf06ea368f4480b7b0d3f75bd966bc48951515611e11565b0190808254925582519182526020820152a280f35b60405162461bcd60e51b815260206004820152601460248201527310dbdb9d195b9d08185b1c9958591e481cdbdb1960621b6044820152606490fd5b60405162461bcd60e51b815260206004820152601860248201527f436f6e74656e74206e6f7420617070726f7665642079657400000000000000006044820152606490fd5b50346101d3576107e536611c35565b906107ee611ea1565b808352600560205261080660ff604085205416611d36565b808352600360205260408320600681019060ff825460081c166108da577f711af55437f037902bd7769a698e0002fd8631e0e8f9803d873381ab3c8545f991610850851515611e11565b6001820180546002840180546001600160a01b0319166001600160a01b0392831617905560058401879055825461ffff191661010117909255426008840155805490911686526004602052604086206108aa908590611dd7565b60018060a01b03905416936108d4604051928392835260406020840152600b604084019101611cb3565b0390a380f35b60405162461bcd60e51b815260206004820152601860248201527f436f6e74656e7420616c726561647920617070726f76656400000000000000006044820152606490fd5b50346101d357806003193601126101d357610938611ea1565b80546001600160a01b03198116825581906001600160a01b03167f8be0079c531659141344cd1fd0a4f28419497f9722a3daafe3b4186f6b6457e08280a380f35b50346101d35760203660031901126101d357602090600435808252600583526109a860ff604084205416611d36565b8152600382526002604060018060a01b039220015416604051908152f35b50346101d357806003193601126101d357602060ff600254166040519015158152f35b50346101d35760403660031901126101d35760043560243567ffffffffffffffff8111610c8c57610a1e903690600401611bde565b908083526005602052610a3760ff604085205416611d36565b80835260036020526040832060028101546001600160a01b03163303610c53576006810160ff815460101c16610c1757835115610bd25760048201845167ffffffffffffffff8111610bbe57610a8d8254611c79565b601f8111610b79575b50806020601f8211600114610b18578891610b0d575b508160011b916000199060031b1c19161790555b6201000062ff000019825416179055600a429101557f666a2fd4dffc089d17f956b26df17681dadaca5604daf0fe5bd2e241a8ee619260405160208152806108d433956020830190611b2d565b905086015138610aac565b8389528089209150601f198316895b818110610b6157509083600194939210610b48575b5050811b019055610ac0565b88015160001960f88460031b161c191690553880610b3c565b9192602060018192868d015181550194019201610b27565b82885260208820601f830160051c81019160208410610bb4575b601f0160051c01905b818110610ba95750610a96565b888155600101610b9c565b9091508190610b93565b634e487b7160e01b87526041600452602487fd5b60405162461bcd60e51b815260206004820152601a60248201527f506572736f6e616c697a656420686173682072657175697265640000000000006044820152606490fd5b60405162461bcd60e51b8152602060048201526014602482015273105b1c9958591e481c195c9cdbdb985b1a5e995960621b6044820152606490fd5b60405162461bcd60e51b81526020600482015260116024820152702737ba1031b7b73a32b73a1037bbb732b960791b6044820152606490fd5b8280fd5b50346101d357806003193601126101d357610ca9611ea1565b60025460ff811615610ce95760ff19166002557f5db9ee0a495bf2e6ff9c91a7834c1ba4fdd244a5e8aa4e537bd38aeae4b073aa6020604051338152a180f35b638dfc202b60e01b8252600482fd5b50346101d35760203660031901126101d3576020906040906001600160a01b03610d20611b6e565b168152600483522054604051908152f35b50346101d35760803660031901126101d3576024356001600160a01b03811681036114415760443567ffffffffffffffff8111610c8c57610d76903690600401611bde565b60643567ffffffffffffffff811161143d57610d96903690600401611bde565b906001600160a01b038316156113f8576004358452600560205260ff6040852054166113ba5780511561137d578151156113405760405192610dd784611b89565b60043584526001600160a01b0381166020808601829052604080870192909252606086018490529051909490610e0d8682611bbc565b868152608082015260a0810186905260c0810186905260e081018690526101008101869052426101208201526101408101869052610160810186905261018081018690526101a0810184905260043586526003855260408087208251815560208301516001820180546001600160a01b03199081166001600160a01b039384161790915592840151600283018054909416911617909155606082015180519067ffffffffffffffff8211611265578190610eca6003850154611c79565b601f81116112f2575b508890601f8311600114611284578a92611279575b50508160011b916000199060031b1c19161760038201555b608082015180519067ffffffffffffffff821161126557610f246004840154611c79565b601f8111611223575b508790601f83116001146111b15791806101a09492600b948c926111a6575b50508160011b916000199060031b1c19161760048201555b60a084015160058201556006810160c0850151151560ff8019835416911617815560e0850151151561ff0082549160081b169061ff001916178155610100850151151562ff000082549160101b169062ff00001916179055610120840151600782015561014084015160088201556101608401516009820155610180840151600a8201550191015180519067ffffffffffffffff821161119257819061100a8454611c79565b601f8111611144575b508790601f83116001146110e15789926110d6575b50508160011b916000199060031b1c19161790555b60043585526005845260408520805460ff1916600117905560065460001981146110c257916108d46110a59260017f1cb3bc59c2305ffa21611c43e7e5840a1ba5c09ec1f2668b3de9649511ed31429501600655604051938493604085526040850190611b2d565b838103978401979097526001600160a01b03169560043595611b2d565b634e487b7160e01b86526011600452602486fd5b015190503880611028565b848a52888a209250601f1984168a5b8a82821061112e575050908460019594939210611115575b505050811b01905561103d565b015160001960f88460031b161c19169055388080611108565b60018596829396860151815501950193016110f0565b909150838952878920601f840160051c810191898510611188575b90601f859493920160051c01905b81811061117a5750611013565b8a815584935060010161116d565b909150819061115f565b634e487b7160e01b88526041600452602488fd5b015190503880610f4c565b90600484018a52888a20918a5b8a601f198616821061120d575050926101a09492600192600b9583601f198116106111f4575b505050811b016004820155610f64565b015160001960f88460031b161c191690553880806111e4565b60018495829395850151815501940192016111be565b600484018a52888a20601f840160051c81018a851061125e575b601f830160051c82018110611253575050610f2d565b8b815560010161123d565b508061123d565b634e487b7160e01b89526041600452602489fd5b015190503880610ee8565b9250600384018a52888a20908a935b8a601f19851686106112d957506001945083601f198116106112c0575b505050811b016003820155610f00565b015160001960f88460031b161c191690553880806112b0565b8282015184559485019460019093019290910190611293565b909150600384018a52888a20601f840160051c81018a8510611339575b90849392915b601f830160051c8201811061132b575050610ed3565b8c8155859450600101611315565b508061130f565b60405162461bcd60e51b815260206004820152601560248201527410dbdb9d195b9d081d1e5c19481c995c5d5a5c9959605a1b6044820152606490fd5b60405162461bcd60e51b815260206004820152601560248201527410dbdb9d195b9d081a185cda081c995c5d5a5c9959605a1b6044820152606490fd5b60405162461bcd60e51b8152602060048201526016602482015275436f6e74656e7420616c72656164792065786973747360501b6044820152606490fd5b60405162461bcd60e51b815260206004820152601760248201527f496e76616c69642063726561746f7220616464726573730000000000000000006044820152606490fd5b8380fd5b5080fd5b50346101d357806003193601126101d3576020600654604051908152f35b50346101d35760203660031901126101d357600435611480611eca565b611488611eec565b80825260056020526114a060ff604084205416611d36565b8082526003602052604082209060068201916114bf60ff845416611d7b565b6002810180546008546005840180546040516323b872dd60e01b815233600482015230602482015260448101919091526001600160a01b0393841697919594919391929091602091839116818b81606481015b03925af180156116b257611695575b5060018060a01b0333166bffffffffffffffffffffffff60a01b82541617905560ff19815416905560094291015533845260046020526115648260408620611dd7565b6007546001600160a01b0316806115ac575b5054906040519182527fc811c19bfae6d1db7d73b36678b8cdd72e1617d50e39f87a7593c5079381fd2860203393a46001805580f35b600854825460405163a9059cbb60e01b81526001600160a01b039384166004820152602481019190915291602091839160449183918a91165af1801561168a5761166d575b50600754815485916001600160a01b0316803b15610c8c57604051631801d39360e01b8152600481018690523360248201526001600160a01b0387166044820152606481019290925282908290608490829084905af1801561044957611658575b50611576565b8161166291611bbc565b61143d578338611652565b6116859060203d602011610442576104368183611bbc565b6115f1565b6040513d87823e3d90fd5b6116ad9060203d602011610442576104368183611bbc565b611521565b6040513d8a823e3d90fd5b50346101d35760a03660031901126101d3576004356044359060ff8216809203610c8c576116e9611eca565b6116f1611eec565b808352600560205261170960ff604085205416611d36565b80835260036020526040832091600683019261172860ff855416611d7b565b600281019360018060a01b038554169460018060a01b03600854168760058501958654833b15610c8c5760e49083604051958694859363d505accf60e01b855233600486015230602486015260448501526024356064850152608484015260643560a484015260843560c48401525af180156116b2576117e5575b5060085484546040516323b872dd60e01b815233600482015230602482015260448101919091529060209082906001600160a01b0316818b8160648101611512565b876117f291989298611bbc565b95386117a3565b50346101d357806003193601126101d3576007546040516001600160a01b039091168152602090f35b50346101d35760203660031901126101d35761183c611b6e565b611844611ea1565b600780546001600160a01b039283166001600160a01b0319821681179092559091167ff3b6d0b09ccb19426b6d277a37ce358f80bcc0a30bdb803dff70688811bcc7038380a380f35b50346101d35760203660031901126101d3576004356040516118ae81611b89565b828152826020820152826040820152606081016060905260808101606090528260a08201528260c08201528260e082015282610100820152826101208201528261014082015282610160820152826101808201526101a001606090528082526005602052604082205460ff1661192390611d36565b815260036020526040902060405161193a81611b89565b8154815260018201546001600160a01b03908116602083019081526002840154909116604080840191825251919390826119778160038501611cb3565b036119829084611bbc565b60608401928352604051928361199b8160048601611cb3565b036119a69085611bbc565b6080850193845260058301549360a08601948552600684015460c087019060ff81161515825260e088018160081c60ff161515815261010089019160101c60ff16151582526007870154926101208a019384526008880154946101408b019586526009890154966101608c01978852600a8a0154986101808d01998a5260405180600b819d0190611a3691611cb3565b03611a41908c611bbc565b6101a08d019a8b52604051809e819e60208352516020830152600160a01b600190039051169060400152600160a01b6001900390511660608d01525160808c016101c090526101e08c01611a9491611b2d565b90518b8203601f190160a08d0152611aac9190611b2d565b985160c08b015251151560e08a0152511515610100890152511515610120880152516101408701525161016086015251610180850152516101a084015251828203601f19016101c08401526103259190611b2d565b9050346114415760203660031901126114415760ff604060209360043581526005855220541615158152f35b919082519283825260005b848110611b59575050826000602080949584010152601f8019910116010190565b80602080928401015182828601015201611b38565b600435906001600160a01b0382168203611b8457565b600080fd5b6101c0810190811067ffffffffffffffff821117611ba657604052565b634e487b7160e01b600052604160045260246000fd5b90601f8019910116810190811067ffffffffffffffff821117611ba657604052565b81601f82011215611b845780359067ffffffffffffffff8211611ba65760405192611c13601f8401601f191660200185611bbc565b82845260208383010111611b8457816000926020809301838601378301015290565b6040906003190112611b84576004359060243590565b8054821015611c635760005260206000200190600090565b634e487b7160e01b600052603260045260246000fd5b90600182811c92168015611ca9575b6020831014611c9357565b634e487b7160e01b600052602260045260246000fd5b91607f1691611c88565b60009291815491611cc383611c79565b8083529260018116908115611d195750600114611cdf57505050565b60009081526020812093945091925b838310611cff575060209250010190565b600181602092949394548385870101520191019190611cee565b915050602093945060ff929192191683830152151560051b010190565b15611d3d57565b60405162461bcd60e51b815260206004820152601660248201527510dbdb9d195b9d08191bd95cc81b9bdd08195e1a5cdd60521b6044820152606490fd5b15611d8257565b60405162461bcd60e51b8152602060048201526015602482015274436f6e74656e74206e6f7420617661696c61626c6560581b6044820152606490fd5b90816020910312611b8457518015158103611b845790565b805468010000000000000000811015611ba657611df991600182018155611c4b565b819291549060031b91821b91600019901b1916179055565b15611e1857565b60405162461bcd60e51b815260206004820152601c60248201527f5072696365206d7573742062652067726561746572207468616e2030000000006044820152606490fd5b15611e6457565b60405162461bcd60e51b8152602060048201526015602482015274496e76616c696420746f6b656e206164647265737360581b6044820152606490fd5b6000546001600160a01b03163303611eb557565b63118cdaa760e01b6000523360045260246000fd5b600260015414611edb576002600155565b633ee5aeb560e01b60005260046000fd5b60ff60025416611ef857565b63d93c066560e01b60005260046000fdfea2646970667358221220baa75c6731e5ca1dbeeb20220e894f6d53fcc90550c805649f23dd1f25c749e864736f6c634300081c0033",
  "linkReferences": {},
  "deployedLinkReferences": {}
}