{
  "_format": "hh-sol-artifact-1",
  "contractName": "TOASTToken",
  "sourceName": "contracts/TOASTToken.sol",
  "abi": [
    {
      "inputs": [
        {
          "internalType": "address",
          "name": "initialOwner",
          "type": "address"
        }
      ],
      "stateMutability": "nonpayable",
      "type": "constructor"
    },
    {
      "inputs": [],
      "name": "ECDSAInvalidSignature",
      "type": "error"
    },
    {
      "inputs": [
        {
          "internalType": "uint256",
          "name": "length",
          "type": "uint256"
        }
      ],
      "name": "ECDSAInvalidSignatureLength",
      "type": "error"
    },
    {
      "inputs": [
        {
          "internalType": "bytes32",
          "name": "s",
          "type": "bytes32"
        }
      ],
      "name": "ECDSAInvalidSignatureS",
      "type": "error"
    },
    {
      "inputs": [
        {
          "internalType": "address",
          "name": "spender",
          "type": "address"
        },
        {
          "internalType": "uint256",
          "name": "allowance",
          "type": "uint256"
        },
        {
          "internalType": "uint256",
          "name": "needed",
          "type": "uint256"
        }
      ],
      "name": "ERC20InsufficientAllowance",
      "type": "error"
    },
    {
      "inputs": [
        {
          "internalType": "address",
          "name": "sender",
          "type": "address"
        },
        {
          "internalType": "uint256",
          "name": "balance",
          "type": "uint256"
        },
        {
          "internalType": "uint256",
          "name": "needed",
          "type": "uint256"
        }
      ],
      "name": "ERC20InsufficientBalance",
      "type": "error"
    },
    {
      "inputs": [
        {
          "internalType": "address",
          "name": "approver",
          "type": "address"
        }
      ],
      "name": "ERC20InvalidApprover",
      "type": "error"
    },
    {
      "inputs": [
        {
          "internalType": "address",
          "name": "receiver",
          "type": "address"
        }
      ],
      "name": "ERC20InvalidReceiver",
      "type": "error"
    },
    {
      "inputs": [
        {
          "internalType": "address",
          "name": "sender",
          "type": "address"
        }
      ],
      "name": "ERC20InvalidSender",
      "type": "error"
    },
    {
      "inputs": [
        {
          "internalType": "address",
          "name": "spender",
          "type": "address"
        }
      ],
      "name": "ERC20InvalidSpender",
      "type": "error"
    },
    {
      "inputs": [
        {
          "internalType": "uint256",
          "name": "deadline",
          "type": "uint256"
        }
      ],
      "name": "ERC2612ExpiredSignature",
      "type": "error"
    },
    {
      "inputs": [
        {
          "internalType": "address",
          "name": "signer",
          "type": "address"
        },
        {
          "internalType": "address",
          "name": "owner",
          "type": "address"
        }
      ],
      "name": "ERC2612InvalidSigner",
      "type": "error"
    },
    {
      "inputs": [],
      "name": "EnforcedPause",
      "type": "error"
    },
    {
      "inputs": [],
      "name": "ExpectedPause",
      "type": "error"
    },
    {
      "inputs": [
        {
          "internalType": "address",
          "name": "account",
          "type": "address"
        },
        {
          "internalType": "uint256",
          "name": "currentNonce",
          "type": "uint256"
        }
      ],
      "name": "InvalidAccountNonce",
      "type": "error"
    },
    {
      "inputs": [],
      "name": "InvalidShortString",
      "type": "error"
    },
    {
      "inputs": [
        {
          "internalType": "address",
          "name": "owner",
          "type": "address"
        }
      ],
      "name": "OwnableInvalidOwner",
      "type": "error"
    },
    {
      "inputs": [
        {
          "internalType": "address",
          "name": "account",
          "type": "address"
        }
      ],
      "name": "OwnableUnauthorizedAccount",
      "type": "error"
    },
    {
      "inputs": [],
      "name": "ReentrancyGuardReentrantCall",
      "type": "error"
    },
    {
      "inputs": [
        {
          "internalType": "string",
          "name": "str",
          "type": "string"
        }
      ],
      "name": "StringTooLong",
      "type": "error"
    },
    {
      "anonymous": false,
      "inputs": [
        {
          "indexed": true,
          "internalType": "address",
          "name": "owner",
          "type": "address"
        },
        {
          "indexed": true,
          "internalType": "address",
          "name": "spender",
          "type": "address"
        },
        {
          "indexed": false,
          "internalType": "uint256",
          "name": "value",
          "type": "uint256"
        }
      ],
      "name": "Approval",
      "type": "event"
    },
    {
      "anonymous": false,
      "inputs": [],
      "name": "EIP712DomainChanged",
      "type": "event"
    },
    {
      "anonymous": false,
      "inputs": [
        {
          "indexed": true,
          "internalType": "address",
          "name": "recipient",
          "type": "address"
        },
        {
          "indexed": false,
          "internalType": "uint256",
          "name": "amount",
          "type": "uint256"
        },
        {
          "indexed": false,
          "internalType": "string",
          "name": "reason",
          "type": "string"
        }
      ],
      "name": "GameRewardDistributed",
      "type": "event"
    },
    {
      "anonymous": false,
      "inputs": [
        {
          "indexed": true,
          "internalType": "address",
          "name": "distributor",
          "type": "address"
        }
      ],
      "name": "GameRewardDistributorAdded",
      "type": "event"
    },
    {
      "anonymous": false,
      "inputs": [
        {
          "indexed": true,
          "internalType": "address",
          "name": "distributor",
          "type": "address"
        }
      ],
      "name": "GameRewardDistributorRemoved",
      "type": "event"
    },
    {
      "anonymous": false,
      "inputs": [
        {
          "indexed": true,
          "internalType": "address",
          "name": "previousOwner",
          "type": "address"
        },
        {
          "indexed": true,
          "internalType": "address",
          "name": "newOwner",
          "type": "address"
        }
      ],
      "name": "OwnershipTransferred",
      "type": "event"
    },
    {
      "anonymous": false,
      "inputs": [
        {
          "indexed": false,
          "internalType": "address",
          "name": "account",
          "type": "address"
        }
      ],
      "name": "Paused",
      "type": "event"
    },
    {
      "anonymous": false,
      "inputs": [
        {
          "indexed": true,
          "internalType": "address",
          "name": "user",
          "type": "address"
        },
        {
          "indexed": false,
          "internalType": "uint256",
          "name": "amount",
          "type": "uint256"
        }
      ],
      "name": "Staked",
      "type": "event"
    },
    {
      "anonymous": false,
      "inputs": [
        {
          "indexed": true,
          "internalType": "address",
          "name": "user",
          "type": "address"
        },
        {
          "indexed": false,
          "internalType": "uint256",
          "name": "amount",
          "type": "uint256"
        }
      ],
      "name": "StakingRewardsClaimed",
      "type": "event"
    },
    {
      "anonymous": false,
      "inputs": [
        {
          "indexed": true,
          "internalType": "address",
          "name": "from",
          "type": "address"
        },
        {
          "indexed": true,
          "internalType": "address",
          "name": "to",
          "type": "address"
        },
        {
          "indexed": false,
          "internalType": "uint256",
          "name": "value",
          "type": "uint256"
        }
      ],
      "name": "Transfer",
      "type": "event"
    },
    {
      "anonymous": false,
      "inputs": [
        {
          "indexed": false,
          "internalType": "address",
          "name": "account",
          "type": "address"
        }
      ],
      "name": "Unpaused",
      "type": "event"
    },
    {
      "anonymous": false,
      "inputs": [
        {
          "indexed": true,
          "internalType": "address",
          "name": "user",
          "type": "address"
        },
        {
          "indexed": false,
          "internalType": "uint256",
          "name": "amount",
          "type": "uint256"
        }
      ],
      "name": "Unstaked",
      "type": "event"
    },
    {
      "inputs": [],
      "name": "DOMAIN_SEPARATOR",
      "outputs": [
        {
          "internalType": "bytes32",
          "name": "",
          "type": "bytes32"
        }
      ],
      "stateMutability": "view",
      "type": "function"
    },
    {
      "inputs": [],
      "name": "MAX_TRANSFER_AMOUNT",
      "outputs": [
        {
          "internalType": "uint256",
          "name": "",
          "type": "uint256"
        }
      ],
      "stateMutability": "view",
      "type": "function"
    },
    {
      "inputs": [],
      "name": "TOTAL_SUPPLY",
      "outputs": [
        {
          "internalType": "uint256",
          "name": "",
          "type": "uint256"
        }
      ],
      "stateMutability": "view",
      "type": "function"
    },
    {
      "inputs": [
        {
          "internalType": "address",
          "name": "distributor",
          "type": "address"
        }
      ],
      "name": "addGameRewardDistributor",
      "outputs": [],
      "stateMutability": "nonpayable",
      "type": "function"
    },
    {
      "inputs": [
        {
          "internalType": "address",
          "name": "owner",
          "type": "address"
        },
        {
          "internalType": "address",
          "name": "spender",
          "type": "address"
        }
      ],
      "name": "allowance",
      "outputs": [
        {
          "internalType": "uint256",
          "name": "",
          "type": "uint256"
        }
      ],
      "stateMutability": "view",
      "type": "function"
    },
    {
      "inputs": [
        {
          "internalType": "address",
          "name": "spender",
          "type": "address"
        },
        {
          "internalType": "uint256",
          "name": "value",
          "type": "uint256"
        }
      ],
      "name": "approve",
      "outputs": [
        {
          "internalType": "bool",
          "name": "",
          "type": "bool"
        }
      ],
      "stateMutability": "nonpayable",
      "type": "function"
    },
    {
      "inputs": [
        {
          "internalType": "address",
          "name": "account",
          "type": "address"
        }
      ],
      "name": "balanceOf",
      "outputs": [
        {
          "internalType": "uint256",
          "name": "",
          "type": "uint256"
        }
      ],
      "stateMutability": "view",
      "type": "function"
    },
    {
      "inputs": [
        {
          "internalType": "uint256",
          "name": "value",
          "type": "uint256"
        }
      ],
      "name": "burn",
      "outputs": [],
      "stateMutability": "nonpayable",
      "type": "function"
    },
    {
      "inputs": [
        {
          "internalType": "address",
          "name": "account",
          "type": "address"
        },
        {
          "internalType": "uint256",
          "name": "value",
          "type": "uint256"
        }
      ],
      "name": "burnFrom",
      "outputs": [],
      "stateMutability": "nonpayable",
      "type": "function"
    },
    {
      "inputs": [],
      "name": "claimStakingRewards",
      "outputs": [],
      "stateMutability": "nonpayable",
      "type": "function"
    },
    {
      "inputs": [],
      "name": "decimals",
      "outputs": [
        {
          "internalType": "uint8",
          "name": "",
          "type": "uint8"
        }
      ],
      "stateMutability": "view",
      "type": "function"
    },
    {
      "inputs": [
        {
          "internalType": "address",
          "name": "recipient",
          "type": "address"
        },
        {
          "internalType": "uint256",
          "name": "amount",
          "type": "uint256"
        },
        {
          "internalType": "string",
          "name": "reason",
          "type": "string"
        }
      ],
      "name": "distributeGameReward",
      "outputs": [],
      "stateMutability": "nonpayable",
      "type": "function"
    },
    {
      "inputs": [],
      "name": "eip712Domain",
      "outputs": [
        {
          "internalType": "bytes1",
          "name": "fields",
          "type": "bytes1"
        },
        {
          "internalType": "string",
          "name": "name",
          "type": "string"
        },
        {
          "internalType": "string",
          "name": "version",
          "type": "string"
        },
        {
          "internalType": "uint256",
          "name": "chainId",
          "type": "uint256"
        },
        {
          "internalType": "address",
          "name": "verifyingContract",
          "type": "address"
        },
        {
          "internalType": "bytes32",
          "name": "salt",
          "type": "bytes32"
        },
        {
          "internalType": "uint256[]",
          "name": "extensions",
          "type": "uint256[]"
        }
      ],
      "stateMutability": "view",
      "type": "function"
    },
    {
      "inputs": [],
      "name": "emergencyWithdrawETH",
      "outputs": [],
      "stateMutability": "nonpayable",
      "type": "function"
    },
    {
      "inputs": [
        {
          "internalType": "address",
          "name": "token",
          "type": "address"
        },
        {
          "internalType": "uint256",
          "name": "amount",
          "type": "uint256"
        }
      ],
      "name": "emergencyWithdrawToken",
      "outputs": [],
      "stateMutability": "nonpayable",
      "type": "function"
    },
    {
      "inputs": [
        {
          "internalType": "address",
          "name": "",
          "type": "address"
        }
      ],
      "name": "gameRewardDistributors",
      "outputs": [
        {
          "internalType": "bool",
          "name": "",
          "type": "bool"
        }
      ],
      "stateMutability": "view",
      "type": "function"
    },
    {
      "inputs": [
        {
          "internalType": "address",
          "name": "account",
          "type": "address"
        }
      ],
      "name": "getStakingInfo",
      "outputs": [
        {
          "internalType": "uint256",
          "name": "staked",
          "type": "uint256"
        },
        {
          "internalType": "uint256",
          "name": "timestamp",
          "type": "uint256"
        },
        {
          "internalType": "uint256",
          "name": "pendingRewards",
          "type": "uint256"
        }
      ],
      "stateMutability": "view",
      "type": "function"
    },
    {
      "inputs": [],
      "name": "name",
      "outputs": [
        {
          "internalType": "string",
          "name": "",
          "type": "string"
        }
      ],
      "stateMutability": "view",
      "type": "function"
    },
    {
      "inputs": [
        {
          "internalType": "address",
          "name": "owner",
          "type": "address"
        }
      ],
      "name": "nonces",
      "outputs": [
        {
          "internalType": "uint256",
          "name": "",
          "type": "uint256"
        }
      ],
      "stateMutability": "view",
      "type": "function"
    },
    {
      "inputs": [],
      "name": "owner",
      "outputs": [
        {
          "internalType": "address",
          "name": "",
          "type": "address"
        }
      ],
      "stateMutability": "view",
      "type": "function"
    },
    {
      "inputs": [],
      "name": "pause",
      "outputs": [],
      "stateMutability": "nonpayable",
      "type": "function"
    },
    {
      "inputs": [],
      "name": "paused",
      "outputs": [
        {
          "internalType": "bool",
          "name": "",
          "type": "bool"
        }
      ],
      "stateMutability": "view",
      "type": "function"
    },
    {
      "inputs": [
        {
          "internalType": "address",
          "name": "owner",
          "type": "address"
        },
        {
          "internalType": "address",
          "name": "spender",
          "type": "address"
        },
        {
          "internalType": "uint256",
          "name": "value",
          "type": "uint256"
        },
        {
          "internalType": "uint256",
          "name": "deadline",
          "type": "uint256"
        },
        {
          "internalType": "uint8",
          "name": "v",
          "type": "uint8"
        },
        {
          "internalType": "bytes32",
          "name": "r",
          "type": "bytes32"
        },
        {
          "internalType": "bytes32",
          "name": "s",
          "type": "bytes32"
        }
      ],
      "name": "permit",
      "outputs": [],
      "stateMutability": "nonpayable",
      "type": "function"
    },
    {
      "inputs": [
        {
          "internalType": "address",
          "name": "distributor",
          "type": "address"
        }
      ],
      "name": "removeGameRewardDistributor",
      "outputs": [],
      "stateMutability": "nonpayable",
      "type": "function"
    },
    {
      "inputs": [],
      "name": "renounceOwnership",
      "outputs": [],
      "stateMutability": "nonpayable",
      "type": "function"
    },
    {
      "inputs": [
        {
          "internalType": "uint256",
          "name": "amount",
          "type": "uint256"
        }
      ],
      "name": "stake",
      "outputs": [],
      "stateMutability": "nonpayable",
      "type": "function"
    },
    {
      "inputs": [
        {
          "internalType": "address",
          "name": "",
          "type": "address"
        }
      ],
      "name": "stakedBalance",
      "outputs": [
        {
          "internalType": "uint256",
          "name": "",
          "type": "uint256"
        }
      ],
      "stateMutability": "view",
      "type": "function"
    },
    {
      "inputs": [
        {
          "internalType": "address",
          "name": "",
          "type": "address"
        }
      ],
      "name": "stakingRewards",
      "outputs": [
        {
          "internalType": "uint256",
          "name": "",
          "type": "uint256"
        }
      ],
      "stateMutability": "view",
      "type": "function"
    },
    {
      "inputs": [
        {
          "internalType": "address",
          "name": "",
          "type": "address"
        }
      ],
      "name": "stakingTimestamp",
      "outputs": [
        {
          "internalType": "uint256",
          "name": "",
          "type": "uint256"
        }
      ],
      "stateMutability": "view",
      "type": "function"
    },
    {
      "inputs": [],
      "name": "symbol",
      "outputs": [
        {
          "internalType": "string",
          "name": "",
          "type": "string"
        }
      ],
      "stateMutability": "view",
      "type": "function"
    },
    {
      "inputs": [],
      "name": "totalSupply",
      "outputs": [
        {
          "internalType": "uint256",
          "name": "",
          "type": "uint256"
        }
      ],
      "stateMutability": "view",
      "type": "function"
    },
    {
      "inputs": [
        {
          "internalType": "address",
          "name": "to",
          "type": "address"
        },
        {
          "internalType": "uint256",
          "name": "amount",
          "type": "uint256"
        }
      ],
      "name": "transfer",
      "outputs": [
        {
          "internalType": "bool",
          "name": "",
          "type": "bool"
        }
      ],
      "stateMutability": "nonpayable",
      "type": "function"
    },
    {
      "inputs": [
        {
          "internalType": "address",
          "name": "from",
          "type": "address"
        },
        {
          "internalType": "address",
          "name": "to",
          "type": "address"
        },
        {
          "internalType": "uint256",
          "name": "amount",
          "type": "uint256"
        }
      ],
      "name": "transferFrom",
      "outputs": [
        {
          "internalType": "bool",
          "name": "",
          "type": "bool"
        }
      ],
      "stateMutability": "nonpayable",
      "type": "function"
    },
    {
      "inputs": [
        {
          "internalType": "address",
          "name": "newOwner",
          "type": "address"
        }
      ],
      "name": "transferOwnership",
      "outputs": [],
      "stateMutability": "nonpayable",
      "type": "function"
    },
    {
      "inputs": [],
      "name": "unpause",
      "outputs": [],
      "stateMutability": "nonpayable",
      "type": "function"
    },
    {
      "inputs": [
        {
          "internalType": "uint256",
          "name": "amount",
          "type": "uint256"
        }
      ],
      "name": "unstake",
      "outputs": [],
      "stateMutability": "nonpayable",
      "type": "function"
    },
    {
      "inputs": [],
      "name": "version",
      "outputs": [
        {
          "internalType": "string",
          "name": "",
          "type": "string"
        }
      ],
      "stateMutability": "pure",
      "type": "function"
    },
    {
      "stateMutability": "payable",
      "type": "receive"
    }
  ],
  "bytecode": "0x61016080604052346105bd57602081612554803803809161002082856105c2565b8339810103126105bd57516001600160a01b038116908190036105bd5760405161004b6040826105c2565b600b8152602081016a2a27a0a9aa102a37b5b2b760a91b8152604051906100736040836105c2565b600b82526a2a27a0a9aa102a37b5b2b760a91b60208301526040519261009a6040856105c2565b60058452641513d054d560da1b6020850152604051936100bb6040866105c2565b60018552603160f81b60208601908152845190946001600160401b0382116104ba5760035490600182811c921680156105b3575b602083101461049a5781601f849311610543575b50602090601f83116001146104db576000926104d0575b50508160011b916000199060031b1c1916176003555b8051906001600160401b0382116104ba5760045490600182811c921680156104b0575b602083101461049a5781601f84931161042a575b50602090601f83116001146103c2576000926103b7575b50508160011b916000199060031b1c1916176004555b61019d816105e5565b610120526101aa84610793565b61014052519020918260e05251902080610100524660a0526040519060208201927f8b73c3c69bb8fe3d512ecc4cf759cc79239f7b179b0ffacaa9a75d522b39400f8452604083015260608201524660808201523060a082015260a0815261021360c0826105c2565b5190206080523060c05280156103a157600980546001600160a01b03198116831790915581906001600160a01b03167f8be0079c531659141344cd1fd0a4f28419497f9722a3daafe3b4186f6b6457e0600080a36001600a55600060ff60055416610392576002546b033b2e3c9fd0803ce8000000810180911161037e576002555080600052600060205260406000206b033b2e3c9fd0803ce800000081540190558060007fddf252ad1be2c89b69c2b068fc378daa952ba7f163c4a11628f55a4df523b3ef60206040516b033b2e3c9fd0803ce80000008152a380600052600e6020526040600020600160ff19825416179055604051907f5f459752eedb674ccd8540c96de71340cf317c2f7ba11e4a5bb3d2ac0c9d966d600080a2611c22908161093282396080518161174d015260a0518161180a015260c05181611717015260e0518161179c015261010051816117c2015261012051816109e101526101405181610a0a0152f35b634e487b7160e01b82526011600452602482fd5b63d93c066560e01b8152600490fd5b631e4fbdf760e01b600052600060045260246000fd5b01519050388061017e565b600460009081528281209350601f198516905b81811061041257509084600195949392106103f9575b505050811b01600455610194565b015160001960f88460031b161c191690553880806103eb565b929360206001819287860151815501950193016103d5565b60046000529091507f8a35acfbc15ff81a39ae7d344fd709f28e8600b4aa8c65c6b64bfe7fe36bd19b601f840160051c81019160208510610490575b90601f859493920160051c01905b8181106104815750610167565b60008155849350600101610474565b9091508190610466565b634e487b7160e01b600052602260045260246000fd5b91607f1691610153565b634e487b7160e01b600052604160045260246000fd5b01519050388061011a565b600360009081528281209350601f198516905b81811061052b5750908460019594939210610512575b505050811b01600355610130565b015160001960f88460031b161c19169055388080610504565b929360206001819287860151815501950193016104ee565b60036000529091507fc2575a0e9e593c00f959f8c92f12db2869c3395a3b0502d05e2516446f71f85b601f840160051c810191602085106105a9575b90601f859493920160051c01905b81811061059a5750610103565b6000815584935060010161058d565b909150819061057f565b91607f16916100ef565b600080fd5b601f909101601f19168101906001600160401b038211908210176104ba57604052565b9081516020811060001461067d575090601f815111610621576020815191015160208210610611571790565b6000198260200360031b1b161790565b6040519063305a27a960e01b8252602060048301528181519182602483015260005b8381106106655750508160006044809484010152601f80199101168101030190fd5b60208282018101516044878401015285935001610643565b6001600160401b0381116104ba57600654600181811c91168015610789575b602082101461049a57601f8111610753575b50602092601f82116001146106ee57928192936000926106e3575b50508160011b916000199060031b1c19161760065560ff90565b0151905038806106c9565b601f198216936006600052806000209160005b86811061073b5750836001959610610722575b505050811b0160065560ff90565b015160001960f88460031b161c19169055388080610714565b91926020600181928685015181550194019201610701565b6006600052601f6020600020910160051c810190601f830160051c015b81811061077d57506106ae565b60008155600101610770565b90607f169061069c565b9081516020811060001461081b575090601f8151116107bf576020815191015160208210610611571790565b6040519063305a27a960e01b8252602060048301528181519182602483015260005b8381106108035750508160006044809484010152601f80199101168101030190fd5b602082820181015160448784010152859350016107e1565b6001600160401b0381116104ba57600754600181811c91168015610927575b602082101461049a57601f81116108f1575b50602092601f821160011461088c5792819293600092610881575b50508160011b916000199060031b1c19161760075560ff90565b015190503880610867565b601f198216936007600052806000209160005b8681106108d957508360019596106108c0575b505050811b0160075560ff90565b015160001960f88460031b161c191690553880806108b2565b9192602060018192868501518155019401920161089f565b6007600052601f6020600020910160051c810190601f830160051c015b81811061091b575061084c565b6000815560010161090e565b90607f169061083a56fe608080604052600436101561001d575b50361561001b57600080fd5b005b60003560e01c90816306fdde031461128057508063095ea7b31461125a57806318160ddd1461123c57806323b872dd146111ed5780632e17de78146110a1578063313ce567146110855780633644e515146110625780633f4ba83a14610ff957806342966c6814610fdc578063499d7f9614610fa257806354fd4d5014610f5b57806358c8710a14610d335780635c975abb14610d105780636021726714610cd6578063648354de14610c975780636b69e05b14610c6f57806370a0823114610c35578063715018a614610bd857806379cc679014610ba85780637ecebe0014610b6e5780638453601714610b1f5780638456cb5914610ac557806384b0196e146109c85780638da5cb5b1461099f5780638f0794fe14610965578063902d55a51461093e57806395d89b4114610859578063a4c3b09114610764578063a694fc3a1461062a578063a9059cbb146105e2578063aa4704f31461052b578063d505accf146103e2578063dd62ed3e14610391578063e85594741461032b578063f2fde38b146102a1578063fc1b31131461027b5763fc9ad227146101c1573861000f565b34610276576020366003190112610276576101da611366565b6101e2611830565b6001600160a01b031680156102315780600052600e6020526040600020600160ff198254161790557f5f459752eedb674ccd8540c96de71340cf317c2f7ba11e4a5bb3d2ac0c9d966d600080a2005b60405162461bcd60e51b815260206004820152601b60248201527f496e76616c6964206469737472696275746f72206164647265737300000000006044820152606490fd5b600080fd5b346102765760003660031901126102765760206040516a084595161401484a0000008152f35b34610276576020366003190112610276576102ba611366565b6102c2611830565b6001600160a01b0316801561031557600980546001600160a01b0319811683179091556001600160a01b03167f8be0079c531659141344cd1fd0a4f28419497f9722a3daafe3b4186f6b6457e0600080a3005b631e4fbdf760e01b600052600060045260246000fd5b3461027657602036600319011261027657610344611366565b61034c611830565b6001600160a01b03166000818152600e60205260408120805460ff191690557fc13dfdaa3afbe0094ec282a4b4de6f1ececaeef4b011f7c6d4d8a10e10e1926e9080a2005b34610276576040366003190112610276576103aa611366565b6103b261137c565b6001600160a01b039182166000908152600160209081526040808320949093168252928352819020549051908152f35b346102765760e0366003190112610276576103fb611366565b61040361137c565b604435906064359260843560ff8116810361027657844211610516576104d96104e29160018060a01b038416968760005260086020526040600020908154916001830190556040519060208201927f6e71edae12b1b97f4d1f60370fef10105fa2faae0126114a169c64845d6126c984528a604084015260018060a01b038916606084015289608084015260a083015260c082015260c081526104a760e08261144f565b5190206104b2611714565b906040519161190160f01b83526002830152602282015260c43591604260a4359220611adb565b90929192611b64565b6001600160a01b03168481036104fd575061001b93506119b9565b84906325c0072360e11b60005260045260245260446000fd5b8463313c898160e11b60005260045260246000fd5b3461027657602036600319011261027657610544611366565b6001600160a01b03166000908152600b6020908152604080832054600c909252822054811592908315806105d9575b61058e575b6060935060405192835260208301526040820152f35b905061059a81426114e1565b600583029383850460051417156105c3576105bc63bbf81e00916060956114fb565b0490610578565b634e487b7160e01b600052601160045260246000fd5b50801515610573565b346102765760403660031901126102765761061f6105fe611366565b602435906106196a084595161401484a000000831115611487565b3361165d565b602060405160018152f35b346102765760203660031901126102765760043561064661150e565b80156107275733600052600060205280604060002054106106eb5733600052600b6020526040600020546106de575b61068081303361165d565b33600052600b60205260406000206106998282546114ee565b905533600052600c602052426040600020556040519081527f9e71bc8eea02a63969f509818f2dafb9254532904319f9dbda79b67bd34a5f3d60203392a26001600a55005b6106e6611530565b610675565b60405162461bcd60e51b8152602060048201526014602482015273496e73756666696369656e742062616c616e636560601b6044820152606490fd5b60405162461bcd60e51b815260206004820152601560248201527443616e6e6f74207374616b65203020746f6b656e7360581b6044820152606490fd5b346102765760403660031901126102765761077d611366565b610785611830565b6001600160a01b0316308114610814576020600091604460018060a01b0360095416604051948593849263a9059cbb60e01b8452600484015260243560248401525af18015610808576107d457005b6020813d602011610800575b816107ed6020938361144f565b8101031261027657518015150361027657005b3d91506107e0565b6040513d6000823e3d90fd5b60405162461bcd60e51b815260206004820152601c60248201527f43616e6e6f7420776974686472617720544f41535420746f6b656e73000000006044820152606490fd5b3461027657600036600319011261027657604051600060045461087b81611392565b808452906001811690811561091a57506001146108bb575b6108b7836108a38185038261144f565b604051918291602083526020830190611325565b0390f35b600460009081527f8a35acfbc15ff81a39ae7d344fd709f28e8600b4aa8c65c6b64bfe7fe36bd19b939250905b808210610900575090915081016020016108a3610893565b9192600181602092548385880101520191019092916108e8565b60ff191660208086019190915291151560051b840190910191506108a39050610893565b346102765760003660031901126102765760206040516b033b2e3c9fd0803ce80000008152f35b34610276576020366003190112610276576001600160a01b03610986611366565b16600052600c6020526020604060002054604051908152f35b34610276576000366003190112610276576009546040516001600160a01b039091168152602090f35b3461027657600036600319011261027657610a67610a057f0000000000000000000000000000000000000000000000000000000000000000611a3d565b610a2e7f0000000000000000000000000000000000000000000000000000000000000000611aa4565b6020610a7560405192610a41838561144f565b600084526000368137604051958695600f60f81b875260e08588015260e0870190611325565b908582036040870152611325565b466060850152306080850152600060a085015283810360c085015281808451928381520193019160005b828110610aae57505050500390f35b835185528695509381019392810192600101610a9f565b3461027657600036600319011261027657610ade611830565b610ae6611a20565b600160ff1960055416176005557f62e78cea01bee320cd4e420270b5ea74000d11b0c9f74754ebdbfc544b05a2586020604051338152a1005b3461027657600036600319011261027657610b38611830565b4780158015610b4357005b6000808093819360018060a01b0360095416908390610b65575bf11561080857005b506108fc610b5d565b34610276576020366003190112610276576001600160a01b03610b8f611366565b1660005260086020526020604060002054604051908152f35b346102765760403660031901126102765761001b610bc4611366565b60243590610bd38233836118e2565b611859565b3461027657600036600319011261027657610bf1611830565b600980546001600160a01b031981169091556000906001600160a01b03167f8be0079c531659141344cd1fd0a4f28419497f9722a3daafe3b4186f6b6457e08280a3005b34610276576020366003190112610276576001600160a01b03610c56611366565b1660005260006020526020604060002054604051908152f35b3461027657600036600319011261027657610c8861150e565b610c90611530565b6001600a55005b34610276576020366003190112610276576001600160a01b03610cb8611366565b16600052600e602052602060ff604060002054166040519015158152f35b34610276576020366003190112610276576001600160a01b03610cf7611366565b16600052600b6020526020604060002054604051908152f35b3461027657600036600319011261027657602060ff600554166040519015158152f35b3461027657606036600319011261027657610d4c611366565b6024359060443567ffffffffffffffff811161027657366023820112156102765780600401359167ffffffffffffffff83116102765736602484840101116102765733600052600e60205260ff6040600020541615610f04576001600160a01b038116938415610ecb578015610e8e573360005260006020528060406000205410610e34577fb06eac86579b5d3641e242821842a475c50dbc1f1c31bf794e2f88cc8261e73f93610e00826060943361165d565b80602460405195869485526040602086015282604086015201848401376000828201840152601f01601f19168101030190a2005b60405162461bcd60e51b815260206004820152602c60248201527f496e73756666696369656e742062616c616e636520666f72207265776172642060448201526b3234b9ba3934b13aba34b7b760a11b6064820152608490fd5b60405162461bcd60e51b8152602060048201526015602482015274125b9d985b1a59081c995dd85c9908185b5bdd5b9d605a1b6044820152606490fd5b60405162461bcd60e51b8152602060048201526011602482015270125b9d985b1a59081c9958da5c1a595b9d607a1b6044820152606490fd5b60405162461bcd60e51b815260206004820152602960248201527f4e6f7420617574686f72697a656420746f20646973747269627574652067616d60448201526865207265776172647360b81b6064820152608490fd5b34610276576000366003190112610276576108b76040805190610f7e818361144f565b60058252640322e302e360dc1b602083015251918291602083526020830190611325565b34610276576020366003190112610276576001600160a01b03610fc3611366565b16600052600d6020526020604060002054604051908152f35b346102765760203660031901126102765761001b60043533611859565b3461027657600036600319011261027657611012611830565b60055460ff8116156110515760ff19166005557f5db9ee0a495bf2e6ff9c91a7834c1ba4fdd244a5e8aa4e537bd38aeae4b073aa6020604051338152a1005b638dfc202b60e01b60005260046000fd5b3461027657600036600319011261027657602061107d611714565b604051908152f35b3461027657600036600319011261027657602060405160128152f35b34610276576020366003190112610276576004356110bd61150e565b80156111a85733600052600b6020528060406000205410611163576110e0611530565b33600052600b60205260406000206110f98282546114e1565b905533600052600b6020526040600020541561114e575b61111b81333061165d565b6040519081527f0f5bb82176feb1b5e747e28471aa92156a04d9f3ab9f45f28e2d704232b93f7560203392a26001600a55005b33600052600c60205260006040812055611110565b60405162461bcd60e51b815260206004820152601b60248201527f496e73756666696369656e74207374616b65642062616c616e636500000000006044820152606490fd5b60405162461bcd60e51b815260206004820152601760248201527f43616e6e6f7420756e7374616b65203020746f6b656e730000000000000000006044820152606490fd5b346102765760603660031901126102765761061f611209611366565b61121161137c565b6044359161122c6a084595161401484a000000841115611487565b6112378333836118e2565b61165d565b34610276576000366003190112610276576020600254604051908152f35b346102765760403660031901126102765761061f611276611366565b60243590336119b9565b3461027657600036600319011261027657600060035461129f81611392565b808452906001811690811561091a57506001146112c6576108b7836108a38185038261144f565b600360009081527fc2575a0e9e593c00f959f8c92f12db2869c3395a3b0502d05e2516446f71f85b939250905b80821061130b575090915081016020016108a3610893565b9192600181602092548385880101520191019092916112f3565b919082519283825260005b848110611351575050826000602080949584010152601f8019910116010190565b80602080928401015182828601015201611330565b600435906001600160a01b038216820361027657565b602435906001600160a01b038216820361027657565b90600182811c921680156113c2575b60208310146113ac57565b634e487b7160e01b600052602260045260246000fd5b91607f16916113a1565b600092918154916113dc83611392565b808352926001811690811561143257506001146113f857505050565b60009081526020812093945091925b838310611418575060209250010190565b600181602092949394548385870101520191019190611407565b915050602093945060ff929192191683830152151560051b010190565b90601f8019910116810190811067ffffffffffffffff82111761147157604052565b634e487b7160e01b600052604160045260246000fd5b1561148e57565b60405162461bcd60e51b815260206004820152602560248201527f5472616e7366657220616d6f756e742065786365656473206d6178696d756d206044820152641b1a5b5a5d60da1b6064820152608490fd5b919082039182116105c357565b919082018092116105c357565b818102929181159184041417156105c357565b6002600a541461151f576002600a55565b633ee5aeb560e01b60005260046000fd5b33600052600b602052604060002054801561165a5733600052600c60205261155d604060002054426114e1565b90811561165657600581029081046005036105c35763bbf81e0091611581916114fb565b048061158a5750565b33600052600d60205260406000206115a38282546114ee565b905533600052600c602052426040600020553315611640576115c3611a20565b6115cf816002546114ee565b60025560003381528060205260408120828154019055604051908282527fddf252ad1be2c89b69c2b068fc378daa952ba7f163c4a11628f55a4df523b3ef60203393a36040519081527fc727c17294ad4f040bec78be22159f993ffb0f22f4dfced8daeafc1ec2608a4c60203392a2565b63ec442f0560e01b600052600060045260246000fd5b5050565b50565b6001600160a01b03169081156116fe576001600160a01b031691821561164057611685611a20565b60008281528060205260408120548281106116e45791604082827fddf252ad1be2c89b69c2b068fc378daa952ba7f163c4a11628f55a4df523b3ef958760209652828652038282205586815280845220818154019055604051908152a3565b916064928463391434e360e21b8452600452602452604452fd5b634b637e8f60e11b600052600060045260246000fd5b307f00000000000000000000000000000000000000000000000000000000000000006001600160a01b03161480611807575b1561176f577f000000000000000000000000000000000000000000000000000000000000000090565b60405160208101907f8b73c3c69bb8fe3d512ecc4cf759cc79239f7b179b0ffacaa9a75d522b39400f82527f000000000000000000000000000000000000000000000000000000000000000060408201527f000000000000000000000000000000000000000000000000000000000000000060608201524660808201523060a082015260a0815261180160c08261144f565b51902090565b507f00000000000000000000000000000000000000000000000000000000000000004614611746565b6009546001600160a01b0316330361184457565b63118cdaa760e01b6000523360045260246000fd5b6001600160a01b031680156116fe57611870611a20565b6000918183528260205260408320548181106118c957817fddf252ad1be2c89b69c2b068fc378daa952ba7f163c4a11628f55a4df523b3ef926020928587528684520360408620558060025403600255604051908152a3565b6064939263391434e360e21b8452600452602452604452fd5b6001600160a01b03908116600081815260016020908152604080832094861683529390529190912054929190600019841061191e575b50505050565b82841061199457801561197e576001600160a01b0382161561196857600052600160205260406000209060018060a01b031660005260205260406000209103905538808080611918565b634a1406b160e11b600052600060045260246000fd5b63e602df0560e01b600052600060045260246000fd5b508290637dc7a0d960e11b60005260018060a01b031660045260245260445260646000fd5b6001600160a01b031690811561197e576001600160a01b03169182156119685760207f8c5be1e5ebec7d5bd14f71427d1e84f3dd0314c0f7b2291e5b200ac8c7c3b925918360005260018252604060002085600052825280604060002055604051908152a3565b60ff60055416611a2c57565b63d93c066560e01b60005260046000fd5b60ff8114611a875760ff811690601f8211611a76576040805192611a61828561144f565b6020808552840191601f190136833783525290565b632cd44ac360e21b60005260046000fd5b50604051611aa181611a9a8160066113cc565b038261144f565b90565b60ff8114611ac85760ff811690601f8211611a76576040805192611a61828561144f565b50604051611aa181611a9a8160076113cc565b91907f7fffffffffffffffffffffffffffffff5d576e7357a4501ddfe92f46681b20a08411611b58579160209360809260ff60009560405194855216868401526040830152606082015282805260015afa15610808576000516001600160a01b03811615611b4c5790600090600090565b50600090600190600090565b50505060009160039190565b9190916004811015611bd65780611b7a57509050565b600060018203611b955763f645eedf60e01b60005260046000fd5b5060028103611bb3578263fce698f760e01b60005260045260246000fd5b9091600360009214611bc3575050565b6335e2f38360e21b825260045260249150fd5b634e487b7160e01b600052602160045260246000fdfea26469706673582212208ac774ee38493c34f9e89b4c6899386aa63d34bb6ba47a79a197388f33498f8164736f6c634300081c0033",
  "linkReferences": {},
  "deployedLinkReferences": {}
}